:02000000602975
:1000060083120313F801F9011030FC00710DF80D8D
:10001600F90D7408F8027508031C750FF902031828
:100026001B287408F80775080318750FF9070310DD
:0A003600F00DF10DFC0B0928080085
:1000400083160313981826280000202883125608C8
:04005000990008000B
:1000540083120313D90105305902031838285908AB
:100064005807840020308000D90A2D2859085807E1
:1000740084008001D90359085807DA000A30F400D3
:10008400F5015608F0005708F10003207808F00045
:100094007908F1003030F0075A08840070088000B5
:1000A4000A30F400F5015608F0005708F100032067
:1000B4007008D6007108D70000307106031D64284B
:1000C40000307006031D67286928D9033D280800FD
:1000D40083120313CB01CC01831686018312061607
:1000E400000000000000000000000612103083161B
:1000F4008600F930FD00FD0B7D280000000083120E
:10010400061E8C28CB0A0319CC0A0730FD00FD0B10
:1001140089288128CC0CCB0CCC134C1BCC170800A1
:0E012400831203134A088A004908820008006B
:1001320083120313D201D3014D08D4004E08D50017
:1001420080304E06F00080307002031DAA28003075
:100152004D020318B8280130D2000030D3004D08F8
:10016200003CD4004E08031C013ED501D5025408C0
:10017200D6005508D7004F08D8002A200630D000F4
:100182000030D1005108003C031DC9285008003C32
:100192000318E42850084F07F20001305002F00023
:1001A2000030031C013E5102F10070084F07840029
:1001B2000008F00072088400700880000130D0024C
:1001C200031CD103C3284F0884002030800052084A
:1001D200530403190229D001D10150084F078400AA
:1001E2000008203A031DF928D00A0319D10AEE2883
:1001F2000130D002031CD10350084F0784002D3078
:040202008000080070
:1002060083120313CF014D0884000008CE004E0868
:10021600003A031918294E08D6002020CF0A4F08A5
:0C0226004D0784000008CE000A290800E3
:10023200831603139816903083129800831687173B
:10024200071383128C1E28291A08F000222908009D
:100252008316031388016A204B08CD004C08CE0098
:100262002B30CF0099202B30CD0003218030F000BD
:1002720080304C067002031D40294B080A3C0318CB
:1002820053296A204B08CD004C08CE002B30CF00FA
:1002920099202B30CD0003212030CD000321603086
:0602A20088003729080066
:1002A80092208A110A128000840AC90A0319CA0A0C
:0802B800F003031D54290800A6
:1002C0006C3083120313A0006F30A1006F30A200C6
:1002D0007030A300A4017230A5006530A600613023
:1002E000A7006430A8007930A900AA01193083164C
:1002F0009900181519212530CD0003218316880196
:080300002921880180298329CD
:02400E004A2F37
:00000001FF
