:02000000E02AF4
:1000060083120313F801F9011030FC00710DF80D8D
:10001600F90D7408F8027508031C750FF902031828
:100026001B287408F80775080318750FF9070310DD
:0A003600F00DF10DFC0B0928080085
:10004000710DF80DF90D7408F8027508031C750F91
:10005000F902F00DF10D0F30FC00710DF80DF90DE6
:100060007408701C3928F8027508031C750FF90212
:100070003E28F80775080318750FF907F00DF10D04
:10008000FC0B2D2870184A287408F8077508031807
:08009000750FF90700000800DC
:1000980083120313EF0105306F0203185A286F0803
:1000A8006E07840020308000EF0A4F286F086E0723
:1000B80084008001EF036F086E078316A0000A30E2
:1000C800F400F50183126C08F0006D08F1000320BC
:1000D8007808F0007908F1003030F007831620081E
:1000E8008400700880000A30F400F50183126C085F
:1000F800F0006D08F10003207008EC007108ED00B5
:1001080000307106031D8A2800307006031D8D28F3
:080118008F28EF035F280800A7
:1001200083160313981896280000902883126C08F1
:04013000990008002A
:0E0134008312031334088A0033088200080087
:1001420083120313C101C2018316860183120616AC
:1001520000000000000000000000061210308316AC
:100162008600F930FD00FD0BB42800000000831268
:10017200061EC328C10A0319C20A0730FD00FD0B7F
:10018200C028B828C20CC10CC213421BC2170800F7
:1001920083120313E801E9016308EA006408EB0033
:1001A20080306406F00080307002031DDA280030CF
:1001B20063020318E8280130E8000030E900630810
:1001C200003CEA006408031C013EEB01EB026A08F2
:1001D200EC006B08ED006508EE004C200630E600EE
:1001E2000030E7006708003C031DF9286608003C60
:1001F2000318142966086507F20001306602F00050
:100202000030031C013E6702F1007008650784009C
:100212000008F00072088400700880000130E602D5
:10022200031CE703F3286508840020308000680877
:10023200690403193229E601E701660865078400AB
:100242000008203A031D2929E60A0319E70A1E2994
:100252000130E602031CE7036608650784002D30BF
:040262008000080010
:1002660083120313AF01B0018316860183120617AA
:100276000000000000000000000006134030831656
:100286008600F930FD00FD0B4629000000008312B0
:10029600061F5529AF0A0319B00A0730FD00FD0BEA
:1002A60052294A29B00CAF0CB013301BB017080006
:1002B60083120313E501630884000008E400640860
:1002C600003A031970296408EC009020E50A6508D5
:0C02D600630784000008E40062290800AF
:1002E20083120313BF01C001831686018312061510
:1002F2000000000000000000000006110430831618
:100302008600F930FD00FD0B8429000000008312F5
:10031200061D9329BF0A0319C00A0730FD00FD0B11
:1003220090298829C00CBF0CC013401BC0170800BD
:10033200831203137408003A031DA8297508003AB2
:10034200031DA829FF30F0007F30F100012A83123B
:100352000313FD01F901F801710870040319003457
:1003620071087506FA00FA1BFD09FB01F51FBE298B
:10037200F409F509F40A0319F50AF11FC529F00970
:10038200F109F00A0319F10A71087504FA00FA1B5F
:10039200DA2920207B18ED29FD1F0034F009F1092C
:1003A200F00A0319F10AF809F909F80A0319F90A16
:1003B2000034F51FE929F11BE5297108F9007008DD
:1003C200F800F101F001CD29F101F001F00A003449
:1003D200F109F009FB0ACA29F80A0319F90A740893
:1003E2007802031DCD2975087902031DCD29F90173
:1003F200F801F00A0319F10AF11FCD290000FF34B8
:020402000800F0
:10040400831603138801A1204108E3004208E40095
:100414004530E500C9204530E3005B2180304206C9
:10042400F00080307002031D192A1E3041020318A7
:100434001E2AA80A0319A90A8030F0008030420657
:100444007002031D272A41081E3C03183A2AA120E2
:100454004108E3004208E4004530E500C920453086
:10046400E3005B212A30E3005B21603088001E2A10
:0204740008007E
:1004760083160313880171218030F0008030400616
:100486007002031D482A3F08143C03184C2A5030BA
:0404960088000800D2
:10049A0083160313880133212F08E3003008E40090
:1004AA004530E500C9204530E3005B218030300645
:1004BA00F00080307002031D642A1E302F020318D8
:1004CA00692AA00A0319A10A2F08B1003008B2004C
:1004DA008030F000803032067002031D762A31081F
:1004EA001E3C0318C32AB101B2012F08E3003008E9
:1004FA00E4004530E500C9204530E3005B21C30133
:10050A00C40180304406F00080307002031D8F2A37
:10051A000A30430203189B2A33214308353E8400DC
:10052A002F088000C30A0319C40A862AC301C4011A
:10053A0080304406F00080307002031DA62A0A307B
:10054A0043020318B32A4308353E84000008B10762
:10055A000318B20AC30A0319C40A9D2A0A30F4000E
:10056A000030F5003108F0003208F10099217008D6
:0E057A00B1007108B200A03088006D2A0800A0
:1005880083160313981690308312980083168717E2
:10059800071383128C1ED32A1A08F000CD2A0800EC
:1005A8009A208A110A128000840AB30A0319B40A2D
:0805B800F003031DD42A080022
:1005C00083120313A001A1017230A2006530A300C1
:1005D0006130A4006430A5007930A600A701A8010D
:1005E000A9016C30AA006F30AB006F30AC007030E6
:1005F000AD00AE011930831699001815C4222230BF
:10060000E3005B21831688018312C301C40180309B
:100610004406F00080307002031D102B0A304302A4
:100620000318242B3B220230FB000430FC00BA30BC
:10063000FD00FD0B192BFC0B192BFB0B192B0000DC
:10064000C30A0319C40A072B80302906F000803042
:100650007002031D2D2B323028020318312B022289
:10066000242B88010630FB001330FC00AD30FD0068
:10067000FD0B382BFC0B382BFB0B382B000000003C
:1006800080302106F00080307002031D492B32308B
:0E069000200203184D2B4D22402B88014E2BCB
:02400E004A2F37
:00000001FF
