:020000005D2879
:0E0006008312031323088A00220882000800D8
:10001400023083120313FB008630FC009930FD008C
:0E002400FD0B1228FC0B1228FB0B1228080003
:100032008316031398169030831298008316861441
:10004200061183128C1E28281A08F00022280800A4
:100052008312031385150A200A2081014D30FB000B
:100062001930FC004F30FD00FD0B3528FC0B352804
:10007200FB0B35280000000085110108A0002008B4
:0C008200A100A10D2110A10D211008000B
:10008E0003208A110A128000840AA20A0319A30A05
:08009E00F003031D47280800D0
:1000A600831603139818592800005328831224082E
:0400B60099000800A5
:1000BA0019308316031399001815192007309F0069
:1000CA00313083168500283081008312A1018515FD
:1000DA0085140511051C77280A2029202108A40067
:1000EA0053206F2805187E289630A40053208510C7
:0400FA0005157E2842
:02400E006A2125
:00000001FF
