:02000000E02AF4
:1000060083120313F801F9011030FC00710DF80D8D
:10001600F90D7408F8027508031C750FF902031828
:100026001B287408F80775080318750FF9070310DD
:0A003600F00DF10DFC0B0928080085
:10004000710DF80DF90D7408F8027508031C750F91
:10005000F902F00DF10D0F30FC00710DF80DF90DE6
:100060007408701C3928F8027508031C750FF90212
:100070003E28F80775080318750FF907F00DF10D04
:10008000FC0B2D2870184A287408F8077508031807
:08009000750FF90700000800DC
:1000980083120313EF0105306F0203185A286F0803
:1000A8006E07840020308000EF0A4F286F086E0723
:1000B80084008001EF036F086E078316A0000A30E2
:1000C800F400F50183126C08F0006D08F1000320BC
:1000D8007808F0007908F1003030F007831620081E
:1000E8008400700880000A30F400F50183126C085F
:1000F800F0006D08F10003207008EC007108ED00B5
:1001080000307106031D8A2800307006031D8D28F3
:080118008F28EF035F280800A7
:1001200083160313981896280000902883126C08F1
:04013000990008002A
:0E0134008312031350088A004F08820008004F
:1001420083120313CD01CE01831686018312061694
:1001520000000000000000000000061210308316AC
:100162008600F930FD00FD0BB42800000000831268
:10017200061EC328CD0A0319CE0A0730FD00FD0B67
:10018200C028B828CE0CCD0CCE134E1BCE170800BB
:1001920083120313E801E9016308EA006408EB0033
:1001A20080306406F00080307002031DDA280030CF
:1001B20063020318E8280130E8000030E900630810
:1001C200003CEA006408031C013EEB01EB026A08F2
:1001D200EC006B08ED006508EE004C200630E600EE
:1001E2000030E7006708003C031DF9286608003C60
:1001F2000318142966086507F20001306602F00050
:100202000030031C013E6702F1007008650784009C
:100212000008F00072088400700880000130E602D5
:10022200031CE703F3286508840020308000680877
:10023200690403193229E601E701660865078400AB
:100242000008203A031D2929E60A0319E70A1E2994
:100252000130E602031CE7036608650784002D30BF
:040262008000080010
:1002660083120313D301D401831686018312061762
:100276000000000000000000000006134030831656
:100286008600F930FD00FD0B4629000000008312B0
:10029600061F5529D30A0319D40A0730FD00FD0BA2
:1002A60052294A29D40CD30CD413541BD417080052
:1002B60083120313E501630884000008E400640860
:1002C600003A031970296408EC009020E50A6508D5
:0C02D600630784000008E40062290800AF
:1002E20083120313D101D2018316860183120615EC
:1002F2000000000000000000000006110430831618
:100302008600F930FD00FD0B8429000000008312F5
:10031200061D9329D10A0319D20A0730FD00FD0BED
:1003220090298829D20CD10CD213521BD217080063
:10033200831203137408003A031DA8297508003AB2
:10034200031DA829FF30F0007F30F100012A83123B
:100352000313FD01F901F801710870040319003457
:1003620071087506FA00FA1BFD09FB01F51FBE298B
:10037200F409F509F40A0319F50AF11FC529F00970
:10038200F109F00A0319F10A71087504FA00FA1B5F
:10039200DA2920207B18ED29FD1F0034F009F1092C
:1003A200F00A0319F10AF809F909F80A0319F90A16
:1003B2000034F51FE929F11BE5297108F9007008DD
:1003C200F800F101F001CD29F101F001F00A003449
:1003D200F109F009FB0ACA29F80A0319F90A740893
:1003E2007802031DCD2975087902031DCD29F90173
:1003F200F801F00A0319F10AF11FCD290000FF34B8
:020402000800F0
:10040400831603138801A1204D08E3004E08E4007D
:100414002F30E500C9202F30E3005B2180304E06E9
:10042400F00080307002031D192A0A304D020318AF
:100434001E2AA00A0319A10A8030F00080304E065B
:100444007002031D272A4D080A3C03183A2AA120EA
:100454004D08E3004E08E4002F30E500C9202F309A
:10046400E3005B212230E3005B21603088001E2A18
:0204740008007E
:1004760083160313880171218030F0008030520604
:100486007002031D482A5108143C03184C2A5030A8
:0404960088000800D2
:10049A0083160313880133215308E3005408E40048
:1004AA002F30E500C9202F30E3005B21803054064D
:1004BA00F00080307002031D642A143053020318BE
:1004CA00692AAD0A0319AE0A5308D5005408D600A2
:1004DA008030F000803056067002031D762A5508D7
:1004EA00143C0318C32AD501D6015308E300540863
:1004FA00E4002F30E500C9202F30E3005B21E10141
:10050A00E20180306206F00080307002031D8F2AFB
:10051A000A30610203189B2A33216108573E84007E
:10052A0053088000E10A0319E20A862AE101E2017E
:10053A0080306206F00080307002031DA62A0A305D
:10054A0061020318B32A6108573E84000008D507E0
:10055A000318D60AE10A0319E20A9D2A0A30F400AE
:10056A000030F5005508F0005608F100992170088E
:0E057A00D5007108D600A03088006D2A080058
:1005880083160313981690308312980083168717E2
:10059800071383128C1ED32A1A08F000CD2A0800EC
:1005A8009A208A110A128000840ACF0A0319D00AF5
:0805B800F003031DD42A080022
:1005C00083120313A001A1016C30A2006F30A300BD
:1005D0006F30A4007030A500A6017230A70065300E
:1005E000A8006130A9006430AA007930AB00AC01EA
:1005F000AD01AE01073083169F0019309900181520
:10060000C4221530FB004B30FC00BE30FD00FD0B5A
:10061000072BFC0B072BFB0B072B00008316880115
:1006200027308312E3005B21603088000730831697
:1006300085008312A001A101AD01AE01851C712BC3
:10064000831688018312E101E20180306206F00026
:1006500080307002031D2E2B0A3061020318422BDA
:100660003B220230FB000430FC00BA30FD00FD0BE1
:10067000372BFC0B372BFB0B372B0000E10A031940
:10068000E20A252B80302106F00080307002031D25
:100690004B2B5030200203184F2B0222422B880193
:1006A0000630FB001330FC00AD30FD00FD0B562B77
:1006B000FC0B562BFB0B562B0000000080302E0647
:1006C000F00080307002031D672B28302D020318C4
:1006D0006B2B4D225E2B88018316850183128501C9
:0606E0001E2B162B722BED
:02400E004A2F37
:00000001FF
