:020000001B29BA
:100006002428C03083120313F0000800F930F000F2
:100016000800A430F0000800B030F0000800993065
:10002600F00008009230F00008008230F00008006E
:10003600F830F00008008030F00008009030F00042
:100046000800831203132A08003A031904282A0811
:10005600013A031909282A08023A03190C282A0822
:10006600033A03190F282A08043A031912282A0802
:10007600053A031915282A08063A031918282A08E2
:10008600073A03191B282A08083A03191E282A08C2
:08009600093A031921280800B2
:0E009E008312031321088A0020088200080044
:1000AC0083120313F8010830FC00700DF80D74086E
:1000BC00F80203186328F8070310F00DFC0B5B28FB
:0200CC0008002A
:1000CE00831203137008F100F0010830FC00710870
:1000DE00F40C03187628FC0B6F28F1010034031082
:1000EE007B28F40C0318F107F10CF00CFC0B7828AC
:0200FE000800F8
:100100000D3083120313FC00FB30FD00FD0B86282D
:0A011000FC0B862800000000080028
:10011A00043083120313FB000C30FC003330FD0063
:10012A00FD0B9528FC0B9528FB0B95280000000079
:02013A000800BB
:10013C004F208A110A128000840AA00A0319A10A0E
:08014C00F003031D9E280800CA
:100154008312031385158D208D2081019930FB00B6
:100164003130FC00A230FD00FD0BB628FC0BB62894
:10017400FB0BB628000085110108A3002308A20088
:0A018400A20D2210A20D22100800A7
:10018E000A3083120313F4002208F0005620780878
:10019E00F0007008A9007008AA0003207008A900DA
:1001AE000A30F4002208F00056200A30F4005620DF
:1001BE007808F0007008A8007008AA0003207008E4
:1001CE00A8006430F4002208F00056207008A60043
:1001DE007008AA0003207008A600A401A501270834
:1001EE00F000B430F400672025087102031D0129C8
:1001FE0024087002031C19290511851405142908F9
:10020E00860080200515851005142808860080209C
:10021E00051585140510260886008020A40A0319EA
:08022E00A50AF62805140800DA
:100236000730831203139F00303083168500803009
:100246008600283081008312A2010130A700C72052
:10025600861B32298D20AA200330A700C7202B2910
:0202660033293A
:02400E006A2125
:00000001FF
