:02000000FF29D6
:10000800FF00030E8301EC000A08EB008A01700868
:10001800A0000408A100D3217008D50031280130C0
:10002800E300C901CA0145280630630203181E28E7
:10003800E30A45286308023A031D24280330E30035
:1000480045286308053A031D2B280630E300452898
:100058000130A2000030A30045285508243A0319AE
:1000680013285508473A031918285508503A031910
:100078001E285508413A031925285508963A0319A8
:100088002C286308063A031D5128C90A0319CA0A0D
:100098004908A03E8400550880002008F000210887
:1000A80084006B088A006C0E8300FF0E7F0E090027
:1000B800083083120313FC002330FD00FD0B622877
:0600C800FC0B6228080099
:0400CE000000080026
:1000D200103083120313FD00FD0B6D280000080091
:1000E20083120317941B7728861178288615141B10
:1000F2007C2806117D280615941A812886108228EC
:100102008614141A86280610872806140313691801
:100112008C2806168D28061286166720861203176B
:100122009419952886119628861514199A2806116D
:100132009B28061594189F288610A0288614141848
:10014200A4280610A528061403136918AA2806165F
:10015200AB280612861667208612691CB2285C201C
:06016200B328692008002B
:10016800831603139818BA280000B42883120317BB
:080178001308031399000800AD
:0E0180008312031365088A00640882000800D9
:10018E008312031369100317130894007120691466
:02019E00080057
:1001A000E2288030831203179000F528C0309000B9
:1001B000F52894309000F528D4309000F528803050
:1001C0009000F528831203171008013A0319D1286B
:1001D0001008023A0319D6281008033A0319D9283F
:1001E0001008043A0319DC28DF281103F000100876
:1001F000F007700890000313691470080317940047
:100200007120691003171208940071206914080006
:100210008316031386120612061086100611861125
:1002200083128612061286110611861006105C20B3
:100230005C205C20861406148616672086125C20DB
:100240008616672086125C208616672086125C2040
:1002500006108616672086125C2086166720861296
:10026000861086158616672086125C208611061475
:1002700086166720861206108616672086125C2076
:1002800086166720861206148616672086125C2062
:100290000610861667208612861506158614061423
:0C02A0008616672086125C206914080096
:1002AC00682980308312031790007B29C03090009E
:1002BC007B29943090007B29D43090007B298030AE
:1002CC0090007B29831203171008013A0319572950
:1002DC001008023A03195C291008033A03195F2924
:1002EC001008043A0319622965291103F00010085B
:1002FC00F007700890007008940071206910EE01EE
:10030C006E080317120784000008031997290313BA
:10031C006E0803171207840000089300C720EE0A2A
:08032C0086290313691408007F
:1003340083120317900103136E0884000008EF0072
:100344006F08003A0319B3296F0803179300B42008
:100354000317900A100803136E0784000008EF00C7
:04036400A2290800C2
:10036800C0208A110A128000840AE40A0319E50AE7
:08037800F003031DB429080085
:1003800083120313EF016F086E078400000803193E
:10039000D2296F086E078400000803179300C72056
:0603A000EF0AC32908006A
:1003A600831203131A08F100981CDB291812181679
:0603B6007108F0000800D0
:1003BC0083120313F8010830FC00700DF80D74085B
:1003CC00F8020318EB29F8070310F00DFC0BE329D6
:0203DC00080017
:1003DE00831603139816903083129800831687178E
:1003EE00071383128C1EFE291A08F000F829080044
:1003FE00BC230821C0308B00203083168C001930AE
:10040E0099001815EF210230FB008630FC00993060
:10041E00FD00FD0B102AFC0B102AFB0B102A0730D7
:10042E0083169F0085018312850183168801FF3094
:10043E00831288000810831687018312881107160D
:10044E000B30FB002630FC005D30FD00FD0B2D2A2D
:10045E00FC0B2D2AFB0B2D2A00000000FF3083160B
:10046E0087000B30FB002630FC005D30FD00FD0BDD
:10047E003E2AFC0B3E2AFB0B3E2A000000000C30ED
:10048E00831203179400712000302306031D512A96
:10049E0000302206031D7F2A6430F4005508F00058
:1004AE00DE2130307007E6006430F4005508F000AD
:1004BE00DE217808F0007008EA000A30F400DE2130
:1004CE0030307007E7000A30F4006A08F000DE21D1
:1004DE007808F00030307007E80001300317900004
:1004EE00013091005630920056216630EE00C02148
:1004FE0000302306031D852A01302206031D722BB0
:10050E00FF30880008100813013003179400712083
:10051E0085140330FB008A30FC005530FD00FD0BC6
:10052E00962AFC0B962AFB0B962A000000008510DB
:10053E000230A2000030A300063063020318A82A7E
:10054E00A32A0B30FB002630FC005D30FD00FD0BB6
:10055E00AE2AFC0BAE2AFB0BAE2A000000000130C7
:10056E000317900001309100831603132E08831297
:10057E0003179200D0200F30ED0017306D020318D4
:10058E00D12A6D08A03E8400000803179300C720EF
:10059E00ED0AC42A02300317900001309100831631
:1005AE0003133A08831203179200D0201B30ED007C
:1005BE0024306D020318EC2A6D08A03E840000085A
:1005CE0003179300C720ED0ADF2A0B30FB002630FD
:1005DE00FC005D30FD00FD0BF22AFC0BF22AFB0B3A
:1005EE00F22A000000004B30EE009A210D30031766
:1005FE009300B4200230FB008630FC009930FD00E1
:10060E00FD0B072BFC0B072BFB0B072B2A30EE00E9
:10061E009A210230FB008630FC009930FD00FD0B64
:10062E00162BFC0B162BFB0B162B2430EE009A21EF
:10063E000E30ED0017306D0203182E2B6D08A03E04
:10064E008400000803179300B420ED0A212B0D300F
:10065E0003179300B4204330EE009A210230FB00C2
:10066E008630FC009930FD00FD0B3B2BFC0B3B2B29
:10067E00FB0B3B2B1A30ED0024306D020318502B70
:10068E006D08A03E8400000803179300B420ED0A05
:10069E00432B0D3003179300B4200230FB0086303D
:1006AE00FC009930FD00FD0B5A2BFC0B5A2BFB0B5B
:1006BE005A2B1A3003179300B4200630FB00133068
:1006CE00FC00AD30FD00FD0B6A2BFC0B6A2BFB0B07
:0A06DE006A2B000000004B2A732B6A
:1007780022308400423083120313F0007930E40001
:080788000330E500B421080074
:0406F200003400349C
:0C06F6004C346134743475343A340034F0
:10070200413454342B3443344D34473453343D3420
:1007120022343034313430343034313433343134BF
:10072200393439343234363422340D34003400341E
:02073200003491
:0C0734004C346F346E3467343A340034B7
:04074000003400344D
:10074400413454342B3443344D34473446343D34EB
:040754003134003408
:020758004B3420
:10075A004834653461347234743420347234613408
:0A076A007434653420343A3400344E
:0207740000344F
:02400E004A2F37
:00000001FF
