:02000000062ACE
:1000060083120313F801F9011030FC00710DF80D8D
:10001600F90D7408F8027508031C750FF902031828
:100026001B287408F80775080318750FF9070310DD
:0A003600F00DF10DFC0B0928080085
:1000400083120313E3010530630203182E286308AB
:100050006207840020308000E30A232863086207D7
:1000600084008001E30363086207E4000A30F400BF
:10007000F5016008F0006108F10003207808F00045
:100080007908F1003030F0076408840070088000BF
:100090000A30F400F5016008F0006108F100032067
:1000A0007008E0007108E10000307106031D5A2855
:1000B00000307006031D5D285F28E3033328080025
:1000C00083160313981866280000602883126008BE
:0400D000990008008B
:1000D40083120313D501D6018316860183120617F2
:1000E40000000000000000000000061340308316EA
:1000F4008600F930FD00FD0B7D280000000083120E
:10010400061F8C28D50A0319D60A0730FD00FD0BFB
:1001140089288128D60CD50CD613561BD61708006F
:0E0124008312031350088A004F08820008005F
:1001320083120313AF01B0018316860183120615E1
:1001420000000000000000000000061104308316C9
:100152008600F930FD00FD0BAC2800000000831280
:10016200061DBB28AF0A0319B00A0730FD00FD0BBC
:10017200B828B028B00CAF0CB013301BB017080071
:1001820083120313D901570884000008D8005808C5
:10019200003A0319D6285808E0006020D90A590805
:0C01A200570784000008D800C828080097
:1001AE0083120313D101D201831686018312061620
:1001BE000000000000000000000006121030831640
:1001CE008600F930FD00FD0BEA28000000008312C6
:1001DE00061EF928D10A0319D20A0730FD00FD0BBD
:1001EE00F628EE28D20CD10CD213521BD2170800CF
:1001FE0083120313DC01DD015708DE005808DF000F
:10020E0080305806F00080307002031D1029003037
:10021E00570203181E290130DC000030DD0057089C
:10022E00003CDE005808031C013EDF01DF025E08C1
:10023E00E0005F08E1005908E20020200630DA00F5
:10024E000030DB005B08003C031D2F295A08003CE0
:10025E0003184A295A085907F20001305A02F000D1
:10026E000030031C013E5B02F10070085907840048
:10027E000008F00072088400700880000130DA0275
:10028E00031CDB03292959088400203080005C08F8
:10029E005D0403196829DA01DB015A085907840045
:1002AE000008203A031D5F29DA0A0319DB0A5429D4
:1002BE000130DA02031CDB035A08590784002D3083
:0402CE0080000800A4
:1002D2008316031388016A205508D7005608D800F0
:1002E2003130D900FF203130D700C120803056068E
:1002F200F00080307002031D80290A305502031875
:100302008529AD0A0319AE0A8030F0008030560606
:100312007002031D8E2955080A3C03189E295508B0
:10032200D7005608D8003130D900FF203130D7002D
:0C033200C1206A20A03088008529080046
:10033E0083160313880199208030F0008030300638
:10034E007002031DAC292F08143C0318B02950303D
:04035E00880008000B
:10036200831603138801D7205108D7005208D800FA
:100372003130D900FF203130D700C1208030520601
:10038200F00080307002031DC8290A3051020318A0
:10039200CD29A00A0319A10A8030F000803052064C
:1003A2007002031DD62951080A3C0318E929D720F7
:1003B2005108D7005208D8003130D900FF2031301F
:1003C200D700C1202230D700C12060308800CD295B
:0203D200080021
:1003D4008316031398169030831298008316871798
:1003E400071383128C1EF9291A08F000F329080058
:1003F40092208A110A128000840ACF0A0319D00AB3
:08040400F003031DFA290800B2
:10040C0083120313A001A1016C30A2006F30A30072
:10041C006F30A4007030A500A6017230A7006530C3
:10042C00A8006130A9006430AA007930AB00AC019F
:10043C00AD01AE011930831699001815EA21273049
:10044C00D700C120831688018312D301D4018030D8
:10045C005406F00080307002031D362A0A30530215
:10046C0003184A2A9F210230FB000430FC00BA30EA
:10047C00FD00FD0B3F2AFC0B3F2AFB0B3F2A000023
:10048C00D30A0319D40A2D2A80302106F0008030BB
:10049C007002031D532A323020020318572AB1214F
:1004AC004A2A88010630FB001330FC00AD30FD00F9
:1004BC00FD0B5E2AFC0B5E2AFB0B5E2A0000000083
:1004CC0080302E06F00080307002031D6F2A32300F
:0E04DC002D020318732A6921662A8801742AEA
:02400E004A2F37
:00000001FF
